{
  "contractName": "lemonadeStand",
  "abi": [
    {
      "inputs": [],
      "payable": false,
      "stateMutability": "nonpayable",
      "type": "constructor"
    },
    {
      "anonymous": false,
      "inputs": [
        {
          "indexed": false,
          "name": "skuCount",
          "type": "uint256"
        }
      ],
      "name": "ForSale",
      "type": "event"
    },
    {
      "anonymous": false,
      "inputs": [
        {
          "indexed": false,
          "name": "sku",
          "type": "uint256"
        }
      ],
      "name": "Sold",
      "type": "event"
    },
    {
      "anonymous": false,
      "inputs": [
        {
          "indexed": false,
          "name": "sku",
          "type": "uint256"
        }
      ],
      "name": "Shipped",
      "type": "event"
    },
    {
      "constant": false,
      "inputs": [
        {
          "name": "_name",
          "type": "string"
        },
        {
          "name": "_price",
          "type": "uint256"
        }
      ],
      "name": "addItem",
      "outputs": [],
      "payable": false,
      "stateMutability": "nonpayable",
      "type": "function"
    },
    {
      "constant": false,
      "inputs": [
        {
          "name": "_sku",
          "type": "uint256"
        }
      ],
      "name": "buyItem",
      "outputs": [],
      "payable": true,
      "stateMutability": "payable",
      "type": "function"
    },
    {
      "constant": true,
      "inputs": [
        {
          "name": "_sku",
          "type": "uint256"
        }
      ],
      "name": "fetchItem",
      "outputs": [
        {
          "name": "name",
          "type": "string"
        },
        {
          "name": "sku",
          "type": "uint256"
        },
        {
          "name": "price",
          "type": "uint256"
        },
        {
          "name": "stateIs",
          "type": "string"
        },
        {
          "name": "seller",
          "type": "address"
        },
        {
          "name": "buyer",
          "type": "address"
        }
      ],
      "payable": false,
      "stateMutability": "view",
      "type": "function"
    },
    {
      "constant": false,
      "inputs": [
        {
          "name": "_sku",
          "type": "uint256"
        }
      ],
      "name": "shipItem",
      "outputs": [
        {
          "name": "shipId",
          "type": "uint256"
        }
      ],
      "payable": false,
      "stateMutability": "nonpayable",
      "type": "function"
    },
    {
      "constant": false,
      "inputs": [],
      "name": "kill",
      "outputs": [],
      "payable": false,
      "stateMutability": "nonpayable",
      "type": "function"
    }
  ],
  "bytecode": "0x608060405234801561001057600080fd5b50336000806101000a81548173ffffffffffffffffffffffffffffffffffffffff021916908373ffffffffffffffffffffffffffffffffffffffff16021790555060006001819055506110a4806100686000396000f3fe60806040526004361061006d576000357c0100000000000000000000000000000000000000000000000000000000900463ffffffff16806341c0e1b51461007257806362d6bbdf14610089578063ad4b9cfb1461015b578063e7fb74c7146102ef578063f61c899a1461031d575b600080fd5b34801561007e57600080fd5b5061008761036c565b005b34801561009557600080fd5b50610159600480360360408110156100ac57600080fd5b81019080803590602001906401000000008111156100c957600080fd5b8201836020820111156100db57600080fd5b803590602001918460018302840111640100000000831117156100fd57600080fd5b91908080601f016020809104026020016040519081016040528093929190818152602001838380828437600081840152601f19601f8201169050808301925050505050505091929192908035906020019092919050505061057a565b005b34801561016757600080fd5b506101946004803603602081101561017e57600080fd5b8101908080359060200190929190505050610815565b6040518080602001878152602001868152602001806020018573ffffffffffffffffffffffffffffffffffffffff1673ffffffffffffffffffffffffffffffffffffffff1681526020018473ffffffffffffffffffffffffffffffffffffffff1673ffffffffffffffffffffffffffffffffffffffff168152602001838103835289818151815260200191508051906020019080838360005b8381101561024857808201518184015260208101905061022d565b50505050905090810190601f1680156102755780820380516001836020036101000a031916815260200191505b50838103825286818151815260200191508051906020019080838360005b838110156102ae578082015181840152602081019050610293565b50505050905090810190601f1680156102db5780820380516001836020036101000a031916815260200191505b509850505050505050505060405180910390f35b61031b6004803603602081101561030557600080fd5b8101908080359060200190929190505050610a77565b005b34801561032957600080fd5b506103566004803603602081101561034057600080fd5b8101908080359060200190929190505050610daf565b6040518082815260200191505060405180910390f35b6000809054906101000a900473ffffffffffffffffffffffffffffffffffffffff1673ffffffffffffffffffffffffffffffffffffffff163373ffffffffffffffffffffffffffffffffffffffff16141515610456576040517f08c379a000000000000000000000000000000000000000000000000000000000815260040180806020018281038252602d8152602001807f546869732066756e6374696f6e2063616e206f6e6c792062652063616c6c656481526020017f20627920746865206f776e65720000000000000000000000000000000000000081525060400191505060405180910390fd5b6000809054906101000a900473ffffffffffffffffffffffffffffffffffffffff1673ffffffffffffffffffffffffffffffffffffffff163373ffffffffffffffffffffffffffffffffffffffff16141515610540576040517f08c379a00000000000000000000000000000000000000000000000000000000081526004018080602001828103825260258152602001807f4f6e6c7920746865206f776e65722063616e206b696c6c207468697320636f6e81526020017f747261637400000000000000000000000000000000000000000000000000000081525060400191505060405180910390fd5b6000809054906101000a900473ffffffffffffffffffffffffffffffffffffffff1673ffffffffffffffffffffffffffffffffffffffff16ff5b6000809054906101000a900473ffffffffffffffffffffffffffffffffffffffff1673ffffffffffffffffffffffffffffffffffffffff163373ffffffffffffffffffffffffffffffffffffffff16141515610664576040517f08c379a000000000000000000000000000000000000000000000000000000000815260040180806020018281038252602d8152602001807f546869732066756e6374696f6e2063616e206f6e6c792062652063616c6c656481526020017f20627920746865206f776e65720000000000000000000000000000000000000081525060400191505060405180910390fd5b60018054016001819055507fa96ae0fc3224ebd79eebfe54bd130cc9cb94416cddd1f2386115e00b725324686001546040518082815260200191505060405180910390a160c0604051908101604052808381526020016001548152602001828152602001600060028111156106d557fe5b81526020013373ffffffffffffffffffffffffffffffffffffffff168152602001600073ffffffffffffffffffffffffffffffffffffffff168152506003600060015481526020019081526020016000206000820151816000019080519060200190610742929190610fd3565b50602082015181600101556040820151816002015560608201518160030160006101000a81548160ff0219169083600281111561077b57fe5b021790555060808201518160030160016101000a81548173ffffffffffffffffffffffffffffffffffffffff021916908373ffffffffffffffffffffffffffffffffffffffff16021790555060a08201518160040160006101000a81548173ffffffffffffffffffffffffffffffffffffffff021916908373ffffffffffffffffffffffffffffffffffffffff1602179055509050505050565b606060008060606000806000600360008981526020019081526020016000206000018054600181600116156101000203166002900480601f0160208091040260200160405190810160405280929190818152602001828054600181600116156101000203166002900480156108cb5780601f106108a0576101008083540402835291602001916108cb565b820191906000526020600020905b8154815290600101906020018083116108ae57829003601f168201915b5050505050965060036000898152602001908152602001600020600101549550600360008981526020019081526020016000206002015494506003600089815260200190815260200160002060030160009054906101000a900460ff16600281111561093357fe5b90506000811415610977576040805190810160405280600881526020017f466f722053616c6500000000000000000000000000000000000000000000000081525093505b60018114156109b9576040805190810160405280600481526020017f536f6c640000000000000000000000000000000000000000000000000000000081525093505b60028114156109fb576040805190810160405280600781526020017f536869707065640000000000000000000000000000000000000000000000000081525093505b6003600089815260200190815260200160002060030160019054906101000a900473ffffffffffffffffffffffffffffffffffffffff1692506003600089815260200190815260200160002060040160009054906101000a900473ffffffffffffffffffffffffffffffffffffffff1691505091939550919395565b8060006002811115610a8557fe5b6003600083815260200190815260200160002060030160009054906101000a900460ff166002811115610ab457fe5b141515610b29576040517f08c379a00000000000000000000000000000000000000000000000000000000081526004018080602001828103825260198152602001807f54686973206974656d206973206e6f7420666f722073616c650000000000000081525060200191505060405180910390fd5b6003600083815260200190815260200160002060020154803410151515610bb8576040517f08c379a00000000000000000000000000000000000000000000000000000000081526004018080602001828103825260168152602001807f4e6f74207061696420656e6f7567682070726963652e0000000000000000000081525060200191505060405180910390fd5b6000600360008581526020019081526020016000206002015434039050336003600086815260200190815260200160002060040160006101000a81548173ffffffffffffffffffffffffffffffffffffffff021916908373ffffffffffffffffffffffffffffffffffffffff16021790555060016003600086815260200190815260200160002060030160006101000a81548160ff02191690836002811115610c5d57fe5b02179055506003600085815260200190815260200160002060030160019054906101000a900473ffffffffffffffffffffffffffffffffffffffff1673ffffffffffffffffffffffffffffffffffffffff166108fc60036000878152602001908152602001600020600201549081150290604051600060405180830381858888f19350505050158015610cf4573d6000803e3d6000fd5b506003600085815260200190815260200160002060040160009054906101000a900473ffffffffffffffffffffffffffffffffffffffff1673ffffffffffffffffffffffffffffffffffffffff166108fc829081150290604051600060405180830381858888f19350505050158015610d71573d6000803e3d6000fd5b507f92f64ca637d023f354075a4be751b169c1a8a9ccb6d33cdd0cb3520543995727846040518082815260200191505060405180910390a150505050565b60008060009054906101000a900473ffffffffffffffffffffffffffffffffffffffff1673ffffffffffffffffffffffffffffffffffffffff163373ffffffffffffffffffffffffffffffffffffffff16141515610e9b576040517f08c379a000000000000000000000000000000000000000000000000000000000815260040180806020018281038252602d8152602001807f546869732066756e6374696f6e2063616e206f6e6c792062652063616c6c656481526020017f20627920746865206f776e65720000000000000000000000000000000000000081525060400191505060405180910390fd5b8160016002811115610ea957fe5b6003600083815260200190815260200160002060030160009054906101000a900460ff166002811115610ed857fe5b141515610f4d576040517f08c379a00000000000000000000000000000000000000000000000000000000081526004018080602001828103825260118152602001807f54686973206974656d20697320736f6c6400000000000000000000000000000081525060200191505060405180910390fd5b600160025401600281905550600254915060026003600085815260200190815260200160002060030160006101000a81548160ff02191690836002811115610f9157fe5b02179055507ff00b9a5725b80c54016f42114f6ed7792d22eecb116011c4afac29c57bef6c95836040518082815260200191505060405180910390a150919050565b828054600181600116156101000203166002900490600052602060002090601f016020900481019282601f1061101457805160ff1916838001178555611042565b82800160010185558215611042579182015b82811115611041578251825591602001919060010190611026565b5b50905061104f9190611053565b5090565b61107591905b80821115611071576000816000905550600101611059565b5090565b9056fea165627a7a723058201c9da384e4e9cb694d706100ba6d695cad17d776ed34f05a91a2ada8bb9274450029",
  "source": "pragma solidity ^0.5.0;\n\ncontract lemonadeStand {\n\taddress payable owner;\n\tuint skuCount;\n\tuint shipCount;\n\n\tenum State {ForSale, Sold, Shipped}\n\n\tstruct Item {\n\t\tstring name;\n\t\tuint sku;\n\t\tuint price;\n\t\tState state;\n\t\taddress payable seller;\n\t\taddress payable buyer;\n\t}\n\n\tmapping(uint => Item) items;\n\n\tevent ForSale(uint skuCount);\n\tevent Sold(uint sku);\n\tevent Shipped(uint sku);\n\n\tmodifier onlyOwner() {\n\t\trequire(msg.sender == owner, \"This function can only be called by the owner\");\n\t\t_;\n\t}\n\n\tmodifier verifyCaller(address _address) {\n\t\trequire(msg.sender == _address, \"Invalid call to the function\");\n\t\t_;\n\t}\n\n\tmodifier paidEnough(uint _price) {\n\t\trequire(msg.value >= _price, \"Not paid enough price.\");\n\t\t_;\n\t}\n\n\tmodifier forSale(uint _sku) {\n\t\trequire(items[_sku].state == State.ForSale, \"This item is not for sale\");\n\t\t_;\n\t}\n\n\tmodifier sold(uint _sku) {\n\t\trequire(items[_sku].state == State.Sold, \"This item is sold\");\n\t\t_;\n\t}\n\n\tconstructor() public {\n\t\towner = msg.sender;\n\t\tskuCount = 0;\n\t}\n\n\tfunction addItem(string memory _name, uint _price) public onlyOwner {\n\t\tskuCount = skuCount + 1;\n\n\t\temit ForSale(skuCount);\n\t\titems[skuCount] = Item(_name, skuCount, _price, State.ForSale, msg.sender, address(0));\n\t}\n\n\tfunction buyItem(uint _sku) public payable forSale(_sku) paidEnough(items[_sku].price) {\n\t\tuint change = msg.value - items[_sku].price;\n\t\titems[_sku].buyer = msg.sender;\n\t\titems[_sku].state = State.Sold;\n\t\titems[_sku].seller.transfer(items[_sku].price);\n\t\titems[_sku].buyer.transfer(change);\n\t\temit Sold(_sku);\n\t}\n\n\tfunction fetchItem(uint _sku) public view returns (string memory name,\n\t\t\t\t\t\tuint sku, uint price, string memory stateIs, address seller, address buyer) {\n\t\tuint state;\n\t\tname = items[_sku].name;\n\t\tsku = items[_sku].sku;\n\t\tprice = items[_sku].price;\n\t\tstate = uint(items[_sku].state);\n\n\t\tif( state == 0) {\n\t\t\tstateIs = \"For Sale\";\n\t\t}\n\n\t\tif( state == 1) {\n\t\t\tstateIs = \"Sold\";\n\t\t}\n\n\t\tif (state == 2) {\n\t\t\tstateIs = \"Shipped\";\n\t\t}\n\n\t\tseller = items[_sku].seller;\n\t\tbuyer = items[_sku].buyer;\n\t}\n\n\tfunction shipItem(uint _sku) public onlyOwner sold(_sku) returns(uint shipId) {\n\t\tshipCount = shipCount + 1;\n\t\tshipId = shipCount;\n\t\titems[_sku].state = State.Shipped;\n\t\temit Shipped(_sku);\n\t}\n\n\tfunction kill() external onlyOwner {\n        require(msg.sender == owner, \"Only the owner can kill this contract\");\n        selfdestruct(owner);\n    }\n}\n",
  "sourcePath": "/home/virender/learning/blockchain/supplychain/LemonadeStand_Supply_Chain/contracts/lemonadeStand.sol",
  "compiler": {
    "name": "solc",
    "version": "0.5.0+commit.1d4f565a.Emscripten.clang"
  },
  "schemaVersion": "3.0.6",
  "updatedAt": "2019-04-05T04:20:31.310Z",
  "devdoc": {
    "methods": {}
  },
  "userdoc": {
    "methods": {}
  }
}